:0400000009EF01F013
:100008005D82FACF18F0FBCF19F0E9CF1AF0EACFEA
:100018001BF0E1CF1CF0E2CF1DF0D9CF1EF0DACFF4
:100028001FF0F3CF20F0F4CF21F0F6CF22F0F7CF76
:1000380023F0F8CF24F0F5CF25F05DC026F05EC0A0
:1000480027F05FC028F060C029F0F0B6F0A0ABD070
:10005800F090620E5EEC0AF02B6E2BA011D043904C
:1000680043BC439C000E0001926F000E916F43A2A7
:1000780007D0480E5EEC0AF02A6E2AB043844392F9
:100088002BA68AD02D68000E2E6E010E2E6401D08C
:1000980010D02E50500D000EF324D96E020EF4200D
:1000A800DA6EDF50D8A403D02EC02DF002D02E2A4D
:1000B800ECD7020E2D606BD0040E036E730E73EC3A
:1000C8000AF02D50500D000EF324D96E020EF420C4
:1000D800DA6E030E046E000E036EDEEC09F0020FFA
:1000E800DF6E2D50500D000EF324D96E020EF42051
:1000F800DA6E4F0EDF6040D0438A010E2E6E1AD0A2
:100108002D50500D000E136E020E146EF350132670
:10011800F45014222E501324D96E000E1420DA6ED7
:10012800000E2E24036E046A030E0422DEEC09F08E
:10013800DF6E2E2A2E50136E146A2D50500D000EAD
:10014800F324D96E020EF420DA6EDF50156E166AAB
:10015800020E1526000E16221350155C1650800A42
:10016800176E1450800A1758D8B0CAD7010E036EFC
:100178001B0E73EC0AF005D0010E036E1B0E73EC18
:100188000AF0000E036E730E73EC0AF005D0010E30
:10019800036E1B0E73EC0AF02BA805D0800E036EBD
:1001A800590E73EC0AF09EB09DA007D09E904B2A82
:1001B8004B50D8A402D000019A2BB2EC0AF029C007
:1001C80060F028C05FF027C05EF026C05DF025C053
:1001D800F5FF24C0F8FF23C0F7FF22C0F6FF21C0B7
:1001E800F4FF20C0F3FF1FC0DAFF1EC0D9FF1DC0F7
:1001F800E2FF1CC0E1FF1BC0EAFF1AC0E9FF19C0FB
:0E020800FBFF18C0FAFF5D9211002EEF08F008
:100F000000C0030000A005000060090000E0100020
:100F100000E01F0000E03D0000E0790000E0F1008B
:100F200000E0E10100E0C10300E0810700E0010F03
:100F300000E0011E00443D1B000DB4150001000837
:100F400000400000020010008001000A006400E878
:100F5000031027010010000001001030313233343B
:100F60003536373839414243444546003031323313
:100F7000343536373839616263646566005258200B
:100F80004D657373616765733A2025336400545867
:100F9000204D657373616765733A2025336400449F
:0B0FA000E96275740054657374000072
:100FAC004F504D5CD8A004D04E504C5CD8B01200C1
:100FBC0071B0FED74F504D5CD8B01AD04D50010DCA
:100FCC00820EF324D96E000EF420DA6EDF50756EAB
:100FDC004D2A4F504D18D8A412004E50D8A41200D0
:100FEC007184010E0E6E2C0E0D6EC1EC08F0120009
:100FFC004E504C5CD8B012004C50010D7B0EF324BB
:10100C00D96E010EF420DA6EDF50D8A40AD04C5001
:10101C00010D7B0EF324D96E010EF420DA6E200E36
:10102C00DF6E4C50010D7B0EF324D96E010EF420B3
:10103C00DA6EDF50756E4C2A4E504C18D8A4120044
:10104C007184010E0E6E2C0E0D6EC1EC08F01200A8
:10105C00940EF66E150EF76E000EF86E01EE9CF007
:10106C0010EE08F00900F5CFEEFFE550E150FAE183
:10107C00A00EF66E150EF76E000EF86E0900F5CF89
:10108C00FCF09C0EF66E150EF76E000EF86E090055
:10109C00F5CF5BF00900F5CF5CF003EE00F08C0EA1
:1010AC00EE6AE806FDE102EE00F0A00EEE6AE8063C
:1010BC00FDE101EE00F09C0EEE6AE806FDE100EEAB
:1010CC0060F08A0EEE6AE806FDE100EE2FF02C0EC1
:1010DC00EE6AE806FDE15D905D92000EF86E00018F
:1010EC0047EF0AF0000E0001F86F000EF96F000ECA
:1010FC00FA6F000EFB6FF6C0EAF0F7C0EBF0EC6B8A
:10110C00ED6BA00EEE6F0F0EEF6F000EF06F000E7A
:10111C00F16F87EC09F0EAC0F8F0EBC0F9F0ECC025
:10112C00FAF0EDC0FBF0560E0001F827FF0EF92384
:10113C00FF0EFA23FF0EFB23FBBF1200FB51FA112B
:10114C00F9110FE1C40EF85DD8A012000AD000F01E
:10115C00D90E0001F827FF0EF923FF0EFA23FF0E1C
:10116C00FB23FBBF1200FB51FA11F911F0E1F8055A
:10117C00D8A01200ECD7000E0F6E000E106E000EF1
:10118C00116E000E126E0DC001F00EC002F0036A5B
:10119C00046AA00E056E0F0E066E000E076E000E92
:1011AC00086EB3EC09F001C00FF002C010F003C0E0
:1011BC0011F004C012F0560E0F26FF0E1022FF0E77
:1011CC001122FF0E122212BE12001250111010101A
:1011DC000EE1C40E0F5CD8A0120009D000F0D90E9D
:1011EC000F26FF0E1022FF0E1122FF0E122212BE2E
:1011FC001200125011101010F1E10F04D8A01200BF
:10120C00EDD7780ED36EC0909B8C000EF26E550EFF
:10121C00A76EAA0EA76E0E01FF91040EE76F130EB8
:10122C00F66F050ED76F550EA76EAA0EA76EFF812F
:10123C000F0148693F0E496FF19E9268936894685C
:10124C0095689668000E896E000E8A6E000E8C6E84
:10125C00000E8D6E938093849294929693968A86C8
:10126C00959E8C8E9382938A949E9398C00EC76E93
:10127C00210EC66E95968C86F19A94948B84F28E80
:10128C00F090F0864BEC09F01200530E9512A49ED0
:10129C00000E736EF00E746E280E726E000E716E70
:1012AC00A38EF28EF28C010E0001F76F2C0EF66FEE
:1012BC0078EC08F07C0E0001826F810E836F000EBB
:1012CC00846F000EEA6F030E97EC0AF0000E00011B
:1012DC00F76FC80EF66F78EC08F07C0E0001826F89
:1012EC00510E836F080E846F000EEA6F030E97EC9D
:1012FC000AF0000E0001F76FC80EF66F78EC08F0DC
:10130C001200000E0001F26F000EF36F000EF46F6E
:10131C00000EF56FEAA108D0EE51F227EF51F3233E
:10132C00F051F423F151F523D890EE37EF37F03725
:10133C00F137D890ED33EC33EB33EA33EA51EB1160
:10134C00EC11ED11D8A4E6D7F2C0EAF0F3C0EBF043
:10135C00F4C0ECF0F5C0EDF01200000E096E000EBA
:10136C000A6E000E0B6E000E0C6E01A008D005501C
:10137C00092606500A2207500B2208500C22D8903E
:10138C000536063607360836D89004320332023258
:10139C0001320150021003100410D8A4E6D709C082
:1013AC0001F00AC002F00BC003F00CC004F01200F4
:1013BC00000EF0B6010E086EF0968A9603C005F08A
:1013CC0004C006F0D89006320532D89006320532A9
:1013DC00D8900632053205507F0B8009A5EC0AF037
:1013EC000338E846E00BE00BA5EC0AF0C5EC0AF07C
:1013FC00076E8A8608B002D0F09601D0F0860750AE
:10140C001200000E0001F06F000EEF6F11D0EF51C3
:10141C00EB25ED6FF051EC21EE6FEDC0F6FFEEC059
:10142C00F7FF0800F550BEEC0AF00001EF4BF02B73
:10143C00EF51EB25ED6FF051EC21EE6FEDC0F6FFA7
:10144C00EEC0F7FF0800F5500009D8B41200DFD742
:10145C009CA202D09C989C88AACFEBF00001EB5187
:10146C00BEEC0AF0080E0001EB19D8B4CFEC0AF070
:10147C000D0E0001EB19D8A412000A0EBEEC0AF0F6
:10148C00120007EC09F087EC0AF09F0E0001EB6FDD
:10149C000F0EEC6F07EC0AF0A4AAFED7A50E000104
:1014AC00EB6F0F0EEC6F07EC0AF02EEC0AF0F4D792
:1014BC00036E000EF0B6010E056EF0968A96035080
:1014CC00A5EC0AF0C5EC0AF0046E8A8605B002D0D1
:1014DC00F09601D0F08604501200046E000EF0B6A7
:1014EC00010E056EF0968A960450A5EC0AF0035096
:1014FC00A5EC0AF08A8605B002D0F09601D0F086F1
:10150C001200949C95847E96000E7D6E190EAB6E27
:10151C00330EAB6E240EA86E900E9C6EAC88AC8E07
:10152C0012000001EB6F71B4FED7000E4D6E000E71
:10153C004C6EEBC04FF0EAC04EF071801200026EA0
:10154C009E96C9CF01F0C69E02C0C9FFC6BEFBD78E
:10155C009EA6FED79E961200A4AE1200A49ED6ECB8
:10156C0007F0000E0E6E050E0D6EC1EC08F01200A9
:10157C000001EA6FA8A2FED7EAC0A9FF1200000E74
:10158C00A5EC0AF0C9501200AF1122334455661174
:05159C00FF041200FF36
:08FFF800ACF5DDFFFFF9FFF19C
:00000001FF
